S01900004B4C30355A2D446576426F61726444656D6F2E733139CC
S1430000000C0020792F0000692000006B2000006920000069200000692000006920000000000000000000000000000069200000692000000000000069200000692000008C
S1430040692000006920000069200000692000000000000069200000692000006920000069200000000000006920000000000000410C0000000000000000000069200000D5
S14300806920000069200000692000000000000069200000692000006920000000000000000000006920000069200000692000006920000000000000F5070000F7070000E8
S14304100448054B10B5834203D0044B002B00D0984710BD64FCFF1F64FCFF1F0000000006480749091A8B10C90FC91810B5491003D0044B002B00D0984710BD64FCFF1F43
S143045064FCFF1F0000000010B5074C2378002B09D1FFF7D5FF054B002B02D0044800E000BF0123237010BD64FCFF1F00000000C0000000054B10B5002B03D004490548C1
S143049000E000BFFFF7CCFF10BDC0460000000068FCFF1FC0000000402292029A1A92467047C046154B002B00D1114B9D46FFF7F3FF00218B460F461148124A121A00F0D9
S14304D07BF80C4B002B00D098470B4B002B00D098470020002104000D000B4800F016F800F046F82000290002F074FD00F016F8000008000000000000000000000C002065
S143051064FCFF1F80FEFF1F59050000002310B501001A00180000F057F810BD084B10B50400002B02D0002100F0A2F8054B1868836A002B00D09847200002F077FDC04621
S143055081060000944C000070B5074D074C641BA410002C02D105F0E9FC70BD013CA300EB589847F5E7C046485F00004C5F000070B500260C4D0D4C641BA410A64209D1D3
S1430590002605F0CBFC0A4D0A4C641BA410A64205D170BDB300EB5898470136EEE7B300EB5898470136F2E7385F0000385F0000385F00003C5F000003008218934200D111
S14305D0704719700133F9E7F0B585B00293244B05001C6816000191002C09D1214C1C60214B002B04D022001B6888320393136063681F2B03DD0120404205B0F0BD002D9B
S143061024D027008837386800280ED1174B002BF1D00930FF3000E000BF0028EBD003000022FC335A609A603860012261688A408B00C31840C3FC304168114341600299C9
S1430650D967022D02D183681A438260636800205A1C62600233019A9B001A51CDE7C0460CFDFF1F80FCFF1F0000000000000000F0B585B003900191244B1C68002C08D090
S14306902300656888336E1E1F68AD006519002E01DA05B0F0BD019B002B0BD0002F02D1013E043DF3E73B00B20080339B58019A9342F5D162686B68013AB24217D1666091
S14306D0002BEDD062680292002F06D001223800B240FC30416811420CD198470B4B626802991B688A42C7D19C42D9D0C4E700226A60E5E78068B1007958104202D10398B4
S14307109847EBE708009847E8E7C0460CFDFF1F0A490B4A88588023DB0003438B5009490A6A80235B001A430A62074A51691943516191680B439360C046FDE7007004406C
S14307503810000000A0044040F00F4030B585B00190029103921900124B984219D0124C124AA5588023DB002B43A35001AA029D6B69127A01249440A34391400B436B61A4
S1430790920013580A490B4008990B43135005B030BD054C054AA55880239B002B43A350E4E7C046009004400070044038100000A8F8FFFF84B0019002910392002B08D02B
S14307D001AA4B68107A0122824013434B6004B0704701AA02998B68107A0122824013438B60F4E770477047034B044A5A6000229A6005321A60704710E000E064BB0000B1
S1430810104B99680902090A81420FD25A681202120A8A18121A91420AD30A4B9B681B021B0A9A420CD29942F7D209E00A00F1E7044B9B681B021B0A9A42F9D39942F7D273
S14308507047C04610E000E070B50500074B5C68A408A402A40A03E02D1B2000FFF7D0FFA542F9D82800FFF7CBFF70BD10E000E070B504000025010F0001001BA941860FF1
S14308908B003343820012196B41940F990021439000801A9941820B8B04840420001A431100034A002302F081FDFFF7CDFF70BD40420F0010B582B02839CBB22B2B00D990
S14308D078E099003D4B5B589F463D4A8024640000940123106851689268FFF737FF394A00940123106851689268FFF72FFF364A00940123106851689268FFF727FF01200B
S143091002B010BD900080184000FFF7B1FFF6E75001801A80008018C000FFF7A9FFEEE7022A03D80520FFF7A3FFE8E70120FAE7531E9A41D3B2254C20686168A268FFF7DB
S143095039FFDCE7531E9A41D3B2214C20686168A268FFF72FFFD2E7531E9A41D3B2184C20686168A268FFF725FFC8E7531E9A41D3B2154C20686168A268FFF71BFFBEE757
S1430990531E9A41D3B20F4A106851689268FFF711FFB4E727230022C254B0E727230022C254ACE727230022C254A8E727230022C254A4E727230122C254A0E7984C0000F3
S14309D0FC5500002056000008560000F055000014560000F0B5C64600B506000024534B534FDD598020C00080460543DD51514FFD780C208543FD704F4FD8598025ED0492
S1430A100543DD514D4D5F5940463843585105291ED0062921D004290ED00120434B46495A58474C22405A5041495A58454C22405A5080BCB846F0BD434BC02189005960E9
S1430A50022A1AD0032A1DD0012A0BD00120E5E73D4B802189009960F2E73B4BC02189001961EDE7384B802292005A60314B00229A70042501277F4210E0334BC022920070
S1430A909A60F3E7304BC0229200DA60EEE7301A874201D307002C000135EDB2202D10D831006943B720800402F0D0FA0104090C6943B720800402F0C9FA8642E7D2801B46
S1430AD0E6E76421300002F0C1FA03234343BB422AD3231FDBB2042B04D8164AD37A02210B43D37231006143B720800402F0AEFA82B2104B9D7A1F26B543013C34402C4303
S1430B109C72120A32401A70C0B25870DA7820210A43DA70DA7814390A43DA709A7904390A439A71002084E7022077E7007004403410000000A006400410000038100000F4
S1430B50FFFFFFF3FFFBFFFF00A00440034B1B795BB2002BFADA014BD871704700A0064070B50500002403E0FFF7F0FF0134E4B2285D0028F8D170BD10B50548FFF7F0FFFA
S1430B900448FFF7EDFF0448FFF7EAFF10BDC046484D0000704D0000984D000010B50348FFF7DEFF024B00221A7010BDC84D000030FEFF1F014BD879C0B2704700A0064008
S1430BD0024B1879202318407047C04600A00640064B1B791B0707D5044A137908210B43DBB21371012070470020FCE700A0064010B5FFF7E5FF002800D110BDFFF7E8FF7D
S1430C10FFF7D8FF054B18701B78032B03D0044B01221A70F1E7FFF7C1FFEEE73CFDFF1F3BFDFF1F014B18607047C04634FEFF1F10B5034B1B68002B00D0984710BDC04647
S1430C5034FEFF1F0023FA229200934205D2054AD278024203D10133F5E7032000E000207047C04600600640F0B585B01400494E494AB35840252B43B35002282CD0032802
S1430C9036D0012807D04349434A8B58402083438B503E387BE04148335880229200134333503F4BDA6005292ED0062936D00429E9D13849394A885880239B0003438B50DC
S1430CD0374BC0229200DA6000230193012676420125039302934BE02E48304A855880239B002B4383502E4BC02292001A61DAE728482A4A85588023DB002B438350294B35
S1430D1080229200DA60CEE72248244943588022920013434350224B1A61D5E71D491F4A88588023DB0003438B501E4B802292001A61C9E7201A0EE00137FFB23F2F11D8CB
S1430D507B00194A995A6943B720400402F07EF9A042EFD9001B8642EED90600019B03930297E9E76D00EDB2019B0133DBB20193019B012B01D80027E0E7039B9D01029E01
S1430D902E43F6B2094B5E7080229A70002005B0F0BDC0460070044034100000381000000090044000A00440285400000060064010B5104BDB789B060CD50E4B5978C9B2FC
S1430DD000225A709A7814200243D2B29A705970002010BD074A937820210B43DBB29370937810210B43DBB293702020FFF72AFFEFE7C046006006400C4B9A7820218A4337
S1430E109A709A7810398A439A700021FA239B00994208D2054BDA782023100018401A4202D00131F2E703207047C04600600640034A937808210B43DBB293707047C046AC
S1430E5000600640024A937808218B43937070470060064010B50D4B18710220FFF7F2FE00280FD1094AD37802210B43DBB2D3708030FFF7E7FE002806D1044BD878012328
S1430E90184010BD0320FCE70320FAE70060064010B50400002910D0FFF7CAFF094B1B7923700220FFF7CEFE002809D1054AD37802210B43DBB2D37010BDFFF7C3FFEDE723
S1430ED00320F9E700600640F0B585B007000D0016000193FFF76CFF041E02D0200005B0F0BD780001273843C0B2FFF7B3FF041E04D00328F2D1FFF77FFFEFE7144A9378FA
S1430F1010218B43937007000CE0601E2818711E611A4B425941C9B2FFF7BAFF071E14D10134E4B2B44204D2002CEED102ABD81DEDE7019B002B05D1013C054B1B792B554F
S1430F503C00CBE7FFF758FFF6E70400C6E7C04600600640F0B583B004000F0016000193FFF726FF051E02D0280003B0F0BD6000C0B2FFF76FFF0400051E07D00328F3D198
S1430F90FFF73AFFF0E70328EED1F9E7B44207D2385DFFF75FFF051EF5D10134E4B2F5E7019B002BE0D0FFF727FFDDE770B50500FFF7FEFE041E03D0FFF71EFF200070BD3D
S1430FD06800C0B2FFF746FF0400F5E7F0B5CE46474680B583B0884603286BD8012A6BD8364B374C1D59C021C90029431951354C1D598021C903294319513349C0239B0062
S14310108B61CB6131490B60002A03D12E4BC0218900596141080127394038401301C9000B435BB2800003435BB2DBB2284A11781C208143117011780B4313700023994632
S14310500193012676421CE04346181A0FE06D00EDB20134E4B2082C11D829007943B720400401F0F3FF4045EED94346C01A8642EDD97B1EDBB2994601940600E7E7013789
S1431090FFB2082F02D800240225E4E74B461B0170221340613A019E16401E430C4B9E701A7840210A431A70002003B0C0BCB946B046F0BD0120F8E70120F6E700700440EF
S14310D038100000341000000090044000A0044000600740074BDB789B06FBD5054B5871044BDB785BB2002BFADA024B5879C0B27047C0460060074010B5B722120300234A
S1431110002102F073F9024A002302F04FF910BD40420F0030B585B001910292039300230360037101E00133DBB2092B26D89A00D218920012498A18526802999142F2D173
S143115001AA157A9A00D21892000D498A18127A9542E8D19A00D2189200525801999142E1D1074D9A00D11889006918C9680160D2189200AA18127C0271D4E705B030BD09
S14311902C56000010B582B0009001911000009C2100FFF7B1FFA06002B010BD82B030B585B00190029103920993002B49D00500254A904235D02548254944588022D20073
S14311D022434250234A934233D020482249445880229204224342501C482049445880225204224342500E221A6009A90C790134E4001C1928236360194A09980A99FFF7CF
S1431210C1FF0023A36001AB1B7A9B005959802292000A435A51002005B030BC08BC02B018470A480A4944588022920022434250C8E706480849445880225204224342501F
S1431250CAE70120E8E7C046009004400070044038100000008003403C10000004100000204E000030B583B0009001911000009D6B461C792900FFF73FFF0134E4002C196A
S1431290A06003B030BD000030B589B01D48FFF767FC05AC1C4B220023CB23C20599069A079B03A8FFF736FF049B0093039B05980699079AFFF772FF002801D164240EE057
S14312D01248FFF74DFC1AE0C822624303980499FFF7C8FF0E48FFF7CBFA013CE4B2002CF2D10AE0C822624303980499FFF7BAFF0748FFF7BDFA0134E4B2642CF2D909B0B5
S143131030BDC046E84D0000C4530000F84D00001027000030B585B00190029103920020002301E00133DBB20D2B19D819010D4A5218526802999142F4D101AA157A1901E1
S1431350084A5218127A9542ECD10A000549525801999142E6D11C01024A1419207BE1E705B030BDA85400002149224A885880231B0503438B50204B1A6A40218A431A628D
S14313905A6A35398A435A625A6A04390A435A625A6A79310A435A62174B5B6A1B06FBD4154B5B6A5B061BD4134AD36C9BB2916C5B189BB2516C5B189BB2116C5B189BB2F1
S14313D0D16B5B189BB2916B5B189BB2516B5B189BB25B0809490B439BB2D36200207047054A536A40210B4353620220F7E7C046007004403C10000000B003400080FFFF62
S143141030B585B001900291039208AB1D780400154B98421DD01549154A88588023DB0003438B50FFF7A0FF002810D1002D18D1104BFD229A60E13ADA6000221A620432C5
S14314505A6201AB1B7A9B001A591A51280005B030BD0649064A885880239B0003438B50E0E70120F3E7C04600900440007004403810000000B0034030B587B003AC0E4B8B
S14314900C33220023CB23C203980499059AFFF741FF031C0022009203980499059AFFF7AFFF002804D00548FFF75AFB07B030BD0348FFF755FBF9E7C45300000C4E00006F
S14314D0204E00001F230340044A1360034B1B681B06FBD5014B186980B2704700B0034070B58AB007AC244E33001833220023CB23C207980899099AFFF70CFF051C00239A
S14315100093031C07980899099AFFF779FF04AC2436230007CE07C30499059A069B02A8FFF7F8FD039B0093029B04980599069AFFF734FE281CFFF7C5FF104B01221A7080
S143155013E0281CFFF7BEFF072101F07FFD84B22D34FF34A4B2220002980399FFF712FE620802980399FFF77DFE044B1B78002BE7D10AB070BDC046C453000030FEFF1F34
S143159030B583B004000B0015006A46D11D0B7000230122FFF7DEFC002801D003B030BD0123012229002000FFF78EFCF6E700B583B06B4619715A710123022201A9FFF750
S14315D0C9FC03B000BD000010B582B00400204B1A6B00929B8E6A4693800078002301226946FFF7B7FC00282DD12078012306226946FFF769FC002827D16B461B78A38088
S14316101B021BB2A3806A4652781343A3809B10A3806B469B78E3801B021BB2E3806A46D2781343E3809B10E3806B461B7923811B021BB223816A465279134323819B10FC
S1431650238102B010BD0220FBE70220F9E7C046C453000070B504000423C05E02F014FE051C608802F010FE011C281C02F066F970BD70B504000623C05E02F005FE051C30
S1431690608802F001FE011C281C02F057F970BD70B504000823C05E02F0F6FD051C608802F0F2FD011C281C02F048F970BD00B587B003900491059281235B000093023BF1
S14316D0FF3BFFF743F807B000BD70B586B001AC0190029103920A9A217A01258D40029C261D083472B629E0581C1A78059B1206082352003560C046FFE7FFE7FFE7FFE748
S1431710FFE7FFE7FFE700D22560C046FFE7FFE7FFE7FFE7FFE7013B25600CD0FFE7FFE7FFE7FFE7FFE7FFE7FFE7FFE7FFE7FFE7FFE7FFE7DDE705930A000300511E002AA1
S1431750D2D162B6002302E0C0460133DBB2BF2BFAD906B070BD000070B588B00F48FFF7FFF905AC0E4D2B003833220043CB43C205980699079AFFF79AFF02AB443519000A
S143179005CD05C12A780A700922009205980699079AFFF79AFF08B070BDC046384E0000C4530000F0B5D6464F464646C0B5051C884617000A2A00DD0A270021281C01F0BB
S14317D0CDFD002820D14646002F27DB06D0BB004A4A9958281C01F01BFF051C281C02F033FD040002F050FD011C281C02F098FB8146002C57D1751C30233370002F75D00A
S14318102E232B7001356EE080231B069C46654443465E1C2D2342461370D5E7FE218905281C01F09BFD00281FD13549281C01F095FD00281BD13349281C01F08FFD00286B
S143185017D13149281C01F089FD002813D12F49281C01F083FD00280FD12D49281C01F07DFD00280BD10027B8E70627AFE70527ADE70427ABE70327A9E70227A7E701272E
S1431890A5E70A21200001F051FD6B1C9A46303129700A21200001F063FC04005546002CEFD12B0007E03500F9E7013B1A7831781970327001369E42F7D39FE71049484660
S14318D002F008FA041C01F0BFFDC0B26F1C030030332B7002F0D8FC011C201C02F020FB81463D0037007E1E002FE7D100232B704046E0BCBA46B146A846F0BDC4550000A0
S1431910000020410000C84200007A4400401C460050C347036CC25C9B185A1C3F2A01DD3F3B1A0002647047036CC25C002A10D0426C934207DC4020821A9B18013B8B420B
S143195009DC002006E09B1A013B8B4205DC002000E0012070470120FCE70120FAE770B504001500002300200DE00133060009E00133E21854321278002A01D08B42F7DB82
S14319908B4214DA3000E21854321278002A01D18B42EADB8B4209DA22005432461C8000D2182A50072EE4DD0120404270BD3000FCE7E023C1507047DC23C1507047E8237C
S14319D0C1507047C1617047F0B51D00C3691E785F789C78DB785C43E4B28E4223D88F4223D38B1B9BB263439BB25B199BB2DB009BB204339BB2002106E0C469E45C54543A
S1431A1001339BB20131C9B20729F6D906E0D11800240C700133DBB2072BF8D92323C35C002B0CD1F0BD0023F6E70023F4E7D15CC943D1540133DBB2072BF8D9F2E70023FC
S1431A50FAE726230022C25470470000002903D00A2903D088B270470148FCE70048FAE7FFFF000010B50A00046900232021A04710BD10B5130004690A001721A04710BD64
S1431A9000B583B06B46DA1D11700121FFF7F1FF03B000BDF0B583B006000F00150001930C00143CE3B2052B20D89C00104B1B599F460021FFF7D6FF29003000FFF7E0FF70
S1431AD0012011E00021FFF7CDFF29003000FFF7D7FF012008E00121FFF7C4FF3469019B2A0039003000A04703B0F0BD0020FBE7504E000010B50A00C46800231521A047E6
S1431B1010BD10B51300C4680A001721A04710BD10B5C468002300221821A04710BD10B5C468002300221921A04710BD01608A7C2223C254704710B582B06C466171A2717C
S1431B502371049B009384686B4601220F21A04702B010BDF0B5DE4657464E464546E0B587B00700039190469A46C3699A78DB788C466244D2B291464344DBB29B46002515
S1431B90039C04AE2B00320051463800FFF71CFF00960123424621003800FFF7CCFF0135EDB20134E4B2A145EBD843460133DBB298469B45E4D807B0F0BCBB46B246A946CF
S1431BD0A046F0BDF8B5CE46474680B505000E0090461C00C3699B789946FFF732FF0027217828006B6898470B4A90420ED001340A4A9042F4D0C3B2424631002800FFF767
S1431C10A9FF4E44F6B20137FFB2E9E73800C0BCB946B046F8BDC046FFFF0000FEFF000010B5024C4460FFF7CDFF10BD5D1A000010B58468002300220921A04710BD10B540
S1431C508468002300220A21A04710BD10B50A00846800230B21A04710BD70B582B0040000236A46537101226846027100912268557C837123681A7C6B460F212000A6683C
S1431C90B0476B469B790133DBB26A469371AB42F0D302B070BD000030B583B06946044B50330A0030CB30C2FFF7D7FF03B030BDC453000010B544690023A04710BD0000F4
S1431CD070B5050014001E001439CBB20C2B35D899001B4B5B589F4603685A784921FFF7E9FF01202BE04A21FFF7E4FF012026E003681A784921FFF7DDFF6C692B689A7800
S1431D1000232C212800A047012018E03078FFF7E1F90136013CE4B2002CF7D101200EE00368DA7800232C214469A0472B685A7849212800FFF7BEFF012000E0002070BDB9
S1431D50684E000070B582B006000C0016E015290CD202B070BDFE29FBD12A786B46DA7129213000FFF7A6FF023407E02A786B46DA7100233000F568A84702342178651CEF
S1431D901929E8D818290DD21629E0D91729E0D12B786A460732137001213000FFF7B1FE0234EBE7002300223000F468A0472C00E4E770B504000023002228214569A847F3
S1431DD00023002214212000E568A84701224B212000FFF76FFF23681A7929212000FFF769FF00224B212000FFF764FF23681A7929212000FFF75EFF01224B212000FFF779
S1431E1059FF23685A7929212000FFF753FF70BDF0B5C64600B5070014001E000939CBB2062B6BD89900364B5B589F463549FFF77DFE012080BCB846F0BDFFF7BAFF324954
S1431E503800FFF77FFF0120F4E7002A04D12F49FFF778FF0120EDE72D49FFF773FF0120E8E7FFF755FE21213800FFF743FE6408802149422143C9B23800FFF73BFE3800EF
S1431E90FFF74DFE0120D5E7FFF742FE7379DB00DBB22222BD5CED18EDB220213800FFF729FE802149422943C9B23800FFF722FEB17940231943C9B23800FFF71BFE336828
S1431ED098463679F600F6B20AE0424631003800FFF717FEAD19EDB2013CE4B2002C08D07319542BF1D9532D03D85426761BF6B2EBE73800FFF713FE01209BE7002099E74A
S1431F109C4E0000205E0000F456000008570000105700000020704700230360074A8260C2600261426123228354033283548361FF33023A8354043283547047251F000004
S1431F50F8B504000F0016001D00FFF7E5FFA760E6602561069B63612000FFF769FEF8BD10B582B01348FEF7FBFD134C134B0093134B144A14492000FFF7E2FF2000FFF761
S1431F905EFE00212000FFF761FE2000FFF784FE0E492000FFF716FD0D4B002200212000FFF73EFE0B4B022200212000FFF738FE02B010BDB84E000044FEFF1FC50800007D
S1431FD0D11C0000A51A0000211E00001C570000D04E0000D84E0000184B8822520100219950174958588022920002435A50154A802149029950144BD96814480140D960E4
S14320101A6902401A61124A04235370114B8021197002231370D17849B21D3319407F3B0B43DBB2D3700A4B9B79DB06FBD4084B9A790C231A42FAD17047C04600700440CD
S1432050381000004410000000900440FFF8FFFE0040064000500640FEE7FEE770B50E48FEF77EFD012401E00134E4B263B2002B11DB2000FEF79AFF0028F5D10748FEF73A
S14320906FFD074D22000749280002F0CFF92800FEF766FDE8E770BDE04E0000FC4E000038FEFF1F0C4F000030B585B001AA0D4B0C33110031CB31C101980299039AFFF733
S14320D029F9FFF7FFF904000748FEF749FD074D22000749280002F0A9F92800FEF740FD05B030BDC4530000144F000038FEFF1F244F000070B586B00390049105922948E4
S1432110FEF72EFD03980499059AFFF703F9061C00230093031C03980499059AFFF770F9214C224B0093224B224A23492000FFF707FF2000FFF783FD00212000FFF786FD57
S14321502000FFF7A9FD1D492000FFF73BFC1C4B01221A7004E0C04601331A4A9342FAD9174B1B78002B1AD00F4C2000FFF794FD154B002200212000FFF752FD301CFFF748
S1432190A1F90200114D1249280002F04FF92B00022200212000FFF743FD0023DDE706B070BDC0462C4F000044FEFF1FC5080000D11C0000A51A0000211E00001C570000B8
S14321D030FEFF1F3F420F00604F000038FEFF1F6C4F0000F0B5C64600B505000E00564B00221A60012821D005DD5449306802F03DF9041E49D0012D05DD5149306802F0B3
S143221035F9041E57D0012D05DD4E49306802F02DF9041E65D0012D00DC8BE04A49306802F024F9041E74D000247AE0474B9C466544AD004F590025002400E00135062DCE
S143225071DCAB00424A9E583900300002F01FF98642F3D1A200384BD6500134EEE70137022F60DCBB003B4A9B589846374BEB189B00F158404602F00AF98045EFD1A200BB
S14322902D4B4146D1500134E9E70700E8E7A200294B4146D15001340137002F43DC2B4BEB189B00F1582C4B9846180002F0EFF88045F1D1EBE70700EFE70137002F32DC48
S14322D0224BEB189B00F158244B9846180002F0DEF88045F1D1A200174B4146D1500134EBE70700EAE70137042F1CDCBB001C4A9B589846154BEB189B00F158404602F023
S1432310C6F88045EFD1A2000B4B4146D1500134E9E70700E8E7A3000D4A9958064A99500134062CF7DD0448A4000023235080BCB846F0BD0024F4E710FDFF1F704F000016
S1432350744F0000884F00008C4F0000FFFFFF3FA85500009C550000784F0000705000008855000030B583B004000D0000236A46D3716B46FF229A71F53A0021FEF71CF9CF
S1432390257080235B0163806B46DA1D0D212800FFF7F6F86B46DB791A2B02D0012003B030BD207840222B21FFF701F900256B4606331B785B0615D4642D13D8FA239B007D
S14323D09D421BD2207802222B21FFF7F0F8002816D1207801222A21FFF7E9F80028DED00420DCE720786B469A1D2B21FFF7C8F8032801D00135DAE70220D0E70320CEE7C8
S14324100420CCE710B50A48FEF7AAFB1D210948FFF7A8FF002803D00748FEF7A1FB10BD0648FEF79DFB064B01221A70F7E7C046904F000030FDFF1FB44F0000CC4F000027
S14324503AFDFF1F70B5244B1B78002B31D02348FFF7BAF800283AD12148FEF781FB1F4D2800FFF7F7F81F4C02222100FFF79AF92000FEF775FB1C48FEF772FB2800FFF765
S1432490F8F802222100FFF78DF92000FEF768FB1648FEF765FB2800FFF7FAF802222100FFF780F92000FEF75BFB1148FEF758FB70BD1D210948FFF755FF002803D1064B09
S14324D001221A70C3E70B48FEF74AFBF7E70A48FEF746FBC0E7C0463AFDFF1F30FDFF1F0050000038FEFF1F0850000010500000F44D0000B44F0000E84F0000F0B5C646A9
S143251000B584B00700884600240BE07B48FEF727FB7B48FEF724FB7A48FEF721FBFEF72BFB0134BC4200DBE2E0A50045442E687549300001F09AFF0028E7D07349300044
S143255001F094FF002826D07149300001F08EFF002827D06F49300001F088FF002832D10134A7422BDDA3004246D5586A49280001F07CFF002818D06849280001F076FF7F
S1432590002815D06649280001F070FF002812D1FFF764FDC5E76348FEF7E2FA6248FEF7DFFABEE7FEF770FEBBE7FFF72BFFB8E7FFF748FFB5E75D48FEF7D2FAB1E75C48DD
S14325D0FEF7CEFAADE75B49300001F04FFF002815D10134A7420EDDA3004246D058564901F044FF002802D1FFF7BAFC99E75348FEF7B6FA95E74E48FEF7B2FA91E75049FB
S1432610300001F033FF00284CD10134A74245DDA3004246D5584B49280001F027FF00281AD04949280001F021FF002817D04749280001F01BFF002814D04549280001F021
S143265015FF00281AD04349280001F00FFF002820D1FEF745FF64E7FEF70EFF61E7FFF723FD5EE701AA3C4B5833110061CB61C101980299039AFFF73DFD52E701AA364BA9
S14326901833110061CB61C101980299039AFFF731FD46E73148FEF763FA42E72448FEF75FFA3EE72E49300001F0E0FE002815D10134A7420EDDA3004246D058294901F024
S14326D0D5FE002802D1FFF747F82AE72648FEF747FA26E71648FEF743FA22E72348FEF73FFA2868FEF73CFA2148FEF739FA18E7002004B080BCB846F0BDC0462050000053
S1432710485000006C510000185000005050000064500000704F00006C5000007850000088500000585000006050000090500000AC500000744F0000784F0000C450000087
S14327508C4F0000E0500000E8500000F0500000FC5000000C510000C45300001C510000884F00007050000038510000545100006051000070B504000D00543080220021A2
S1432790FDF71AFF201D40220021FDF715FF00236364A364E364D422A3500432A3500432A3500432A3500832A350024B2365E423E55070BD7051000010B50E4C20600E4972
S14327D0FFF7D8FF0D492068FFF7F6F80C492068FFF7EFF820680B49FFF7F1F80A48FEF721FA0A4B80225201C02149005A501A60002010BD40FDFF1F710B00000D250000D1
S1432810E5210000AD0B0000010C000000E100E0F8B504000E0015003E2A03DD25E02000FFF778F829002000FFF77EF80028F6D0236CE25C002A00D1E554606C3F273F1A22
S1432850AF4213DD013020182A00310001F09EFD626CA5545519013565643F2D01DD403D65640023626CA354A364F8BD013020183A00310001F08AFDF119EA1B200001F03F
S143289085FDE5E770B588B00400E423C3581C489847D423E258002A23DCD423E1586A462000FFF75CF80500431C20D0002D06DDDC23E358002B02D0694628009847E423F4
S14328D0E358206D98470025D423E5500433E5502000543080220021FDF76EFEE56408B070BD21005431201DFFF792FFD5E7E4260448A3599847A35901489847D6E7C0462D
S1432910944D000084510000F0B5C64600B506008846056C2B00002700E00137F45C002C05D001341B193F2BF7DD403BF5E7002A3ED1B06CB84203DD0120404220E0013264
S1432950735D002B09D0B91A0139884205D00133ED183F2DF3DD403DF1E7002B56D00130B0645B193F2B0EDC802200214046FDF723FE691C725D7118404601F007FD705D18
S143299080BCB846F0BD3F24641B802200214046FDF712FE691C71182200404601F0F6FC43461819725D121B310001F0EFFCE6E7B06C00282DDD0138B064002300E00133F2
S14329D0725D002A08D0F91A884205D00132AD183F2DF4DD403DF2E753193F2B06DC691C7118404601F0D2FC705DC9E73F24641B691C71182200404601F0C8FC4346181926
S1432A10725D121B310001F0C1FCEDE701204042B6E70020B4E7000030B585B005000C00002300930C22002101A8FDF7C5FD002C06DC0CDBE423EB586846984705B030BDDB
S1432A502300064A1021684601F0BCFCF2E76342034A1021684601F0B5FCEBE79C510000A451000010B586B00400072300938233054A102102A801F0A5FCE423E35802A82E
S1432A90984706B010BDC046AC51000070B582B005000C001600E423C3581148984701AB00221A8004E0E423EB5801A898470134D423EB58A3420ADD2B1954331B7801AA63
S1432AD01370002BEFD1130020221A70EBE72800FFF7C8FF31002800FFF79EFF02B070BDB851000070B504000A00010054310430FFF70AFF002800DA70BD231854330022EB
S1432B101A70D423E050D82560512000FFF7AAFF625900212000FFF7B9FFEDE770B504005B2906D00378012B07D07E2944D0012070BD012303700020FAE741290BD0422993
S1432B500ED0432911D044291FD037292CD038292ED00120ECE70021FFF7C4FF0120E7E74139FFF7BFFF0120E2E7D823C258043BC3589A4201DB0120DAE74239FFF74CFF65
S1432B90D822A3580133A350F5E7D823C358002B01DC0120CCE743394942FFF73DFFD822A358013BA350F4E7022303700020BFE7032303700020BBE7022B03D0032B08D020
S1432BD00120B5E7FFF74EFFD8230022E2500120AEE7D426D82583594259991AFFF71CFFA35963510120A3E770B504000E001500D423C25853197F2B01DD002070BD010090
S1432C105431D823C358E8180818C918D21A01F0C6FB002000E00130A8420CDAD823E3581B18315CE218543211702029F3D1130000221A70EFE7D822A3585B19A350D42359
S1432C50E25894466544E55064195434002323700120D3E770B50400D823C358002B1ADDE423C3580C48984721005431D826A259501E08188918D42563599A1A013201F0A7
S1432C908EFBA359013BA3516359E218543200211170013B635170BDBC510000F0B5C64600B504000568280001F0EAFB8046002600E00136B3001F59002F07D0380001F011
S1432CD0DFFB4045F5D280463D00F2E7002040450ADA002200E0013293001B59002B06D0295C1B5C9942F6D080BCB846F0BD0130EDE70000F0B5CE46474680B589B00400B7
S1432D10E023C358002B4BD0D8256A464159FEF726FE80466359013BE31854331B78002B06D183002C4A69465A5001239C46E044E023E35869464046984707000068002881
S1432D502ED07B68002B09D03800FFF7A7FF8146E423E3582148984700250AE001F090FB814611E0E426A3599847A3591C4898470135AB00D8590028F4D1E42517486359AB
S1432D9098476359206D98474B46002B0DD12000FFF768FED823E25800212000FFF776FE09B0C0BCB946B046F0BD3D684046013880006B46C05801F063FB29184B461A1A29
S1432DD02000FFF711FF7B68002BE0D1012204492000FFF709FFDAE7F84E0000944D00000450000070B582B0040001914378002B07D1019B7F2B00D97EE09A004B498A58D8
S1432E109746C9B2FFF78AFE002801D00023637002B070BDFFF736FDFAE7FFF76BFFF7E701234370F4E72000FFF714FFD823E258002AF8DC00212000FFF728FEE8E7E42351
S1432E50C3583B489847D823E258043BE250DFE7D426D82583594259991AFFF7DDFDA3596351D5E7FFF7FEFDD8230022E250CFE7D823C258043BC3589A42C9DA0121FFF7FC
S1432E90CBFDD822A3580133A350C1E7D823C358002BBDD001214942FFF7BEFDD822A358013BA350B4E70021FFF71CFEB0E70121FFF718FEACE7FFF7CDFED823E1580A00FF
S1432ED02000FFF7E3FDA3E7E4251A48635998476359206D98472000FFF7C4FDD823E25800212000FFF7D2FD92E7E823C358002B00D18DE798478BE7202B11D01F2B00DC4C
S1432F1086E7012201A92000FFF76EFE002800D17EE7D823E258511E2000FFF7B7FD77E7D422A258002A00D172E7E7E7C4510000B8510000944D000010B5084B1B78002BB0
S1432F500BD0064B00221A70054B1868002804D0044B1978C9B2FFF745FF10BD3BFDFF1F40FDFF1F3CFDFF1F10B5154B83F30988FFF732F8134A09E0990010684058546838
S1432F906050013391688B42F6D30C320E4B9A4201D20023F6E70D490AE09A000868844662440020106001334A689342F5D30831074B994201D20023F6E7FDF773FAC046D7
S1432FD0000C0020545F0000605F0000605F0000605F000010B5FDF707FC9620012205218001FDF7F7FC002801D0FDF791FB0C4A06210320FDF738FE002801D0FDF788FBCB
S1433010012208490020FDF7E1FF002801D0FDF77FFB0548FFF7D0FBFFF78EFFFCE7C046A086010040420F0044FDFF1FFEE7C046044A03001068002802D0C3181360704769
S14330500148FAE770FEFF1F80FEFF1F002243088B4274D303098B425FD3030A8B4244D3030B8B4228D3030C8B420DD3FF22090212BA030C8B4202D31212090265D0030BC0
S14330908B4219D300E0090AC30B8B4201D3CB03C01A5241830B8B4201D38B03C01A5241430B8B4201D34B03C01A5241030B8B4201D30B03C01A5241C30A8B4201D3CB026D
S14330D0C01A5241830A8B4201D38B02C01A5241430A8B4201D34B02C01A5241030A8B4201D30B02C01A5241CDD2C3098B4201D3CB01C01A524183098B4201D38B01C01A7F
S1433110524143098B4201D34B01C01A524103098B4201D30B01C01A5241C3088B4201D3CB00C01A524183088B4201D38B00C01A524143088B4201D34B00C01A5241411A55
S143315000D20146524110467047FFE701B5002000F0F0F802BDC0460029F7D076E7704703460B437FD4002243088B4274D303098B425FD3030A8B4244D3030B8B4228D3E8
S1433190030C8B420DD3FF22090212BA030C8B4202D31212090265D0030B8B4219D300E0090AC30B8B4201D3CB03C01A5241830B8B4201D38B03C01A5241430B8B4201D3B5
S14331D04B03C01A5241030B8B4201D30B03C01A5241C30A8B4201D3CB02C01A5241830A8B4201D38B02C01A5241430A8B4201D34B02C01A5241030A8B4201D30B02C01AC9
S14332105241CDD2C3098B4201D3CB01C01A524183098B4201D38B01C01A524143098B4201D34B01C01A524103098B4201D30B01C01A5241C3088B4201D3CB00C01A52410C
S143325083088B4201D38B00C01A524143088B4201D34B00C01A5241411A00D201465241104670475DE0CA0F00D04942031000D34042534000229C4603098B422DD3030A08
S14332908B4212D3FC22890112BA030A8B420CD3890192118B4208D3890192118B4204D389013AD0921100E08909C3098B4201D3CB01C01A524183098B4201D38B01C01A93
S14332D0524143098B4201D34B01C01A524103098B4201D30B01C01A5241C3088B4201D3CB00C01A524183088B4201D38B00C01A5241D9D243088B4201D34B00C01A524144
S1433310411A00D20146634652415B10104601D34042002B00D54942704763465B1000D3404201B5002000F005F802BD0029F8D016E770477047C046844608006146FFE7C4
S14333501FB500F083FC002801D40021C8421FBD10B500F00FFC4042013010BD10B500F075FC002801DB002010BD012010BDC04610B500F06BFC002801DD002010BD012077
S143339010BDC04610B500F01BFC002801DC002010BD012010BDC04610B500F011FC002801DA002010BD012010BDC046002B11D1002A0FD1002900D1002802D00021C94396
S14333D0080007B4024802A14018029003BDC04665FFFFFF03B4684601B5029800F04CF8019B9E4602B00CBC7047C046F0B5CE46474680B5070099463B0C9C4613041B0C8F
S14334101D000E0061460004140C000C45434B4360436143C0182C0C20188C46834203D980235B029846C444494679437243030C63442D042D0CC918000440198918C0BCFD
S1433450B946B046F0BDC0469E2110B5C905041CFFF7A2FF002803D1201C00F0F5FE10BD9E21201CC90500F05BFD00F0EDFE80231B069C466044F2E7F0B557464E4645462F
S1433490DE46E0B504000D009246994683B08B4230D82DD04946504600F062FF29000600200000F05DFF331A9846203B9B4633D45A465346934042461F00534693401E00B6
S14334D0AF423AD8AF4200D178E05B46A41BBD41002B00DA75E0002200230092019301235A4693400193012342469340009328E08242CFD900220023009201930C9B002B8A
S143351001D01C605D600098019903B0F0BCBB46B246A946A046F0BD424620239B1A5246DA40414613004A468A40170042461F43534693401E00AF42C4D90022002300924B
S143355001934346002BD9D0FB0772081A4346467B080EE0AB4201D1A2420CD8A41A9D41012024196D410021013E24184D41002E06D0AB42EED9013E24196D41002EF8D13E
S1433590009801995B4600196941002B24DB2B005A464446D3402A00E2401C005B461500002B2ADB26009E40330026004746BE403200801A9941009001919FE7A342BCD8D2
S14335D083E74246202300219B1A0022009101920122DA40019286E7424620239B1A2A0046469A402300F340444613432A00E2401C005B461500002BD4DA42462F002023F2
S1433610260097409B1ADE403B003343CDE7C046F0B5C64643025B0A44004F004E02DA00240E3F0E9446C50F720A984600B5C90FB609E01B8D424AD0002836DD002F60D0D2
S1433650FF2C00D1A9E08022D20416431B2800DCD1E001206346181A430100D488E080018709380000F05EFE05388740844200DCB4E0241AAF483840430704D00F23034085
S1433690042B00D00430430100D474E00134E2B2FF2C60D08001430A98464346D005ED071843284380BCB846F0BD002833D0381B002C00D0B5E06346002B00D18AE0431E09
S14336D0012800D127E1FF2865D01800B0E000286DDD002F35D0FF2C5FD08023DB041E431B2800DCABE001206044430140D50134FF2C30D00123904A034040081040184371
S1433710BAE7002E68D0421E012800D1D4E0FF2843D010009AE7FE20671C384275D1002C00D0B1E06346002B00D1EEE00022002EB3D0981B430100D4F5E063460D00F01A01
S14337509AE7002E48D0421E012800D1ACE0FF2823D01000C4E70023FF2298469DE7FE20611C084275D0FF29F5D00C0066447008430700D082E7C308FF2C0ED05B025B0AAF
S14337909846E2B289E7002E07D08020C003034203D0024201D10D001300002BDBD08020C00318434002430A9846FF2275E70028D5D0381B002C5DD0FF2FEDD08023624630
S14337D0DB041A4394461B2800DC83E001203C0080198AE70D0013000400CDE720233A00041B38000134E2401C1BA040431E98410024104340E732002023C2401B1A3000E8
S14338109840431E9841104324E763469F1B7B0146D4002F00D024E700230025002298463BE7FF2FB7D080236246DB041A4394461B2845DD01200D003C00301A0CE7320043
S14338502023C2401B1A30009840431E984110434AE7002C48D16346002B61D00022002E00D11AE730006044430181D5314B0C0018407DE76346002BADD0431E012813D018
S1433890FF2889D018009EE76046002800D07AE7002E80D18023DB0300259846FF22FCE663460D00F71ADCE6300060440124430100D45DE702241DE763460124981BCBE698
S14338D064462022C440121A60469040431E98412043B0E762462023C2401B1A60469840431E9841104372E76146002900D153E7002E00D151E78021C9030B4200D14CE798
S14339100A4200D049E7130047E7002E84D090460D000022C1E663460D00F01A01349BE690460022B9E6002800D021E7002300259846B2E6FFFFFFFBFFFFFF7DF0B54F4641
S14339504646D6464200C0B546020C1C760A120EC70F002A00D172E0FF2A00D178E0F3008026F6041E437F235B429846002399469A469044650263006D0A1B0EE40F002B00
S14339904FD0FF2B45D0424680207F3BD31A98460022ED00C004054339004B466140C9B213430F2B00D9B5E06F489B00C3589F46002527002E0092465346022B00D18DE041
S14339D0032B00D19FE0012B18D043467F33002B6CDD720704D00F223240042A00D00436320103D5614B1E4043468033FE2B00DD74E0B601760AD8B202E00F0000200026A7
S1433A10C0053043FF073843E0BCBA46B146A846F0BDFF235B429C46E044002D40D1022202E0002D31D1012239004B466140C9B213430F2B36D84E489B00C3589F46002E4D
S1433A5016D1042399460023984601339A4691E7002E06D108239946F7339846FD3B9A4688E70C239946F3339846FC3B9A4681E7300000F057FC431F9E4076235B421B1A6B
S1433A909846002399469A4674E7280000F04AFC431F9D40762340449846002280447BE7032279E70F00FF200026A9E70120C01A1B28A3DC3200C24040469E308640731EF2
S1433AD09E411643730704D00F233340042B00D00436730143D50120002691E7FF2000268EE780260027FF20F60389E700258020C003064207D0054205D128434602270056
S1433B10FF20760A7CE78020C00306437602FF20760A75E773016D01AB421CD20122524294460026E0441C3201201C0076005B00002C01DB9D4201D85B1B0643013A002A78
S1433B50F3D15A1E93411E4343467F330F00002B00DD3EE7AAE71A2201265B1BE4E7B6010020760A4CE7C046385E0000FFFFFFF7785E000070B5420045024E024C00C30F08
S1433B906D0A0120120E760A240EC90FFF2A06D0FF2C03D0A24201D1B54206D070BD002DFCD1FF2CFAD1002EF8D18B4206D00120002AF3D12800431E9841EFE70020EDE73D
S1433BD070B5420045024E024C00C30F6D0A120E760A240EC80FFF2A1BD0FF2C0ED0002A1BD1002C01D1002E1CD0002D0CD083421CD00221581E0840013870BD002E22D108
S1433C10002AF4D1002DF2D10028F6D101204042F3E7002D17D1FF2CF0D0002CE7D1002EE5D1E6E70020002DE7D0E2E7A24205DCEADBB54202D8E7D30020DEE743425841AB
S1433C5040000138D9E702204042D6E770B5420045024E024C00C30F6D0A120E760A240EC80FFF2A0BD0FF2C0DD0002A1FD1002C16D1002E14D10020002D10D009E0002DCB
S1433C900CD1FF2C13D1002E08D1002A08D0834212D00221581E0840013800E0022070BD002DF4D10028FAD101204042F7E7002CEDD1002EEBD1ECE7A24205DCF2DBB54275
S1433CD002D8EFD30020EAE74342584140000138E5E7C046F0B54F464646D64644024500C0B5640A0F1C2D0EC60F002D00D18DE0FF2D00D192E00023802099469A46E400EF
S1433D10C00404437F3D7802430A98467B001B0EFF0F002B00D170E0FF2B00D186E04246D00080227F3BED180023D204024390469C4631004B467940681C0F2B1CD8764A08
S1433D509B00D3589F4639004446E2465346022B0FD0032B00D1D7E0012B37D100200024C0052043C9070843E0BCBA46B146A846F0BDFF200024F3E7260C2404220C444626
S1433D902404240C434627001B0C574374435A435E4312193B0C9B189C4203D980225202944666443F041A043F0CD2199401671EBC411B0C920E9B1914439B011C431B0141
S1433DD000D49BE0012362081C40144302007F32002A64DD630704D00F232340042B00D00434230103D502004C4B80321C40FE2ABFDCA401640AD0B2B2E74346002B3DD1A1
S1433E104A4601331A4391469C4692E7002C29D104239946033B00259A4674E7002C1BD108239946063BFF259A466CE74346FF35002B0BD102234A461A4391469C4678E7A9
S1433E5053463100022B00D083E792E703234A461A4391469C466CE70C239946093BFF259A4650E7200000F05DFA7625431F9C4000236D4299469A462D1A44E7404600F01F
S1433E9051FA4246431F9A4000232D1A90469C46763D4EE780240021FF20E40360E701239B1A1B2B00DD59E722009E30DA4084401300621E94411C43630704D00F2323401F
S1433ED0042B00D0043463011AD50120002447E78020C003044209D04346034206D14446044364023900FF20640A39E78020C003044364023100FF20640A31E7280065E713
S1433F10A4010020640A2BE78020C00304436402FF20640A24E7C046B85E0000FFFFFFF7F0B54F46D6464646C0B547027F0A4E02FA009446720A450091464A002D0E120EE6
S1433F50C40FBA46C90FB609A81AFF2A54D0012359408C425CD000283BDD002A52D1002E00D1C9E0421E012800D12FE1FF2800D1A4E010001B2800DCCDE001206346181A0A
S1433F90430100D48AE080018709380000F0CAF905388740854200DCB0E02D1AA8483840430704D00F230340042B00D00430430100D476E00135EAB2FF2D63D08001470A52
S1433FD0D0053843E4072043E0BCBA46B146A846F0BD002836D00C00501B002D00D0A4E06346002B00D186E0431E012800D114E1FF2862D018009FE0002EA8D08C4267D0C5
S14340100028E6DDFF2D59D08023DB041E43B1E700285DDD002A2BD0FF2D4FD08023DB041E431B2800DC97E001206044430135D50135FF2D26D00123824A03404008104030
S14340501843ADE7FE206A1C634610427AD1002D00D0AAE0002B00D1E3E00022002EAFD0981B430100D4E5E063460C00F01A97E7002E41D0421E012800D19FE0FF281DD045
S14340901000CEE7FF2200279AE7FE206A1C10426CD0FF2AF6D0150066447008430700D080E7C3089A46FF2D08D053465B025F0AEAB285E7002B00D096E0CA465346002B2A
S14340D0E0D08027FF031F437F02FF227F0A77E70028DAD0501B002D59D0FF2AEDD080236146DB0419438C461B2800DC8BE00120150080199AE7CA460500D4E720233A0071
S1434110451B38000135EA405D1BA840431E98410025104344E720231B1A32009E40C2403000431E9841104328E7FF2AC5D080236146DB0419438C461B284BDD012015002A
S1434150301A1DE79F1B7B012BD4002F00D01CE700240022002733E720231B1A32009E40C2403000431E984110435EE76346002DA0D1002B5BD00022002E00D120E730009E
S1434190604443018AD52E4B0135184086E76346002BB0D0431E012810D0FF288DD01800A2E763460C00F71AEFE6002B1CD1002E26D180270024FF22FF0301E730006044CB
S14341D00125430100D469E7022534E763460125981BD5E661462023C1401B1A60469840431E98410843AAE7002E00D166E78022D203174200D161E74B46134200D05DE7BB
S14342100C00CA465AE761462023C1401B1A60469840431E984108436AE763460135F01AAEE6002E94D00C004F460022C8E64F460022C5E6002800D030E700240027BFE6B8
S1434250FFFFFFFBFFFFFF7D41024200C30F490A0020120E7E2A03DD9D2A02DD094A98187047802000040143952A07DC9620821AD1404842002BF3D10800F1E7963A9140FF
S1434290F7E7C046FFFFFF7FF8B5002813D0C317C5185D40C40F280000F044F89E2306001B1A962B0FDCDBB2082801DD083EB5406D026D0A02E0002400230025D80528435D
S14342D0E4072043F8BD992B0CDD05222900121AD1400A00010028001B318840411E884102431500052E12DC29000D4F39406A0709D00F202840042805D004314A0102D54C
S14343109F2339409B1B89014D0ADBB2D6E7721F95402900024F39406A07F4D0E9E7C046FFFFFFFB1C2101231B04984201D3000C10391B0A984201D3000A08391B09984252
S143435001D30009043902A2105C40187047C0460403020201010101000000000000000010B5002903D1FFF7DDFF203002E00800FFF7D8FF10BDC04603B47146490840006E
S14343904900095E49008E4403BC7047002310B59A4200D110BDCC5CC4540133F8E710B5884202D98B18984203D3002307E08B5C8354013AFBD210BDCC5CC45401339A4249
S14343D0FAD1F8E70CB430B5174B0C001D689DB0002908DA8B2301202B6040421DB030BC08BC02B0184782236A469B009382002302900690994200D04B1E049307930123EC
S14344106A465B42D382280021AB209A02A9019300F0B6F8431C01DA8B232B60002CDDD00023029A1370D9E700FCFF1F0EB400B50B499CB01DAB029006900791049109484E
S1434450094904CB0591006802A9019300F098F80023029A13701CB008BC03B01847C046FFFFFF7F00FCFF1F0802FFFF02780B78002A03D0013001319A42F7D0D01A704721
S14344900023C25C0133002AFBD1581E70470A7830B5002A0CD130BD9A4208D10123CC5C002CF8D0C55CA54201D10133F7E701300378002BF0D11800EDE70000F0B58E68F5
S14344D085B007000C00039201939E423CD890238A89DB001A4234D00969236860695B1A029303234343DD0FED18019B029801331B186D10AB4200D91D00530532D5290050
S1434510380000F015FB061E09D10C233B6040230120A28940421343A38105B0F0BD029A2169FFF733FFA389144A1A4080231343A381029B2661F61826606561019EED1AE7
S1434550A560019B9E4200D9019E320003992068FFF725FFA36800209B1BA36023689E192660DAE72A00380000F040FB061EE0D13800216900F092FAC7E7C0467FFBFFFF85
S1434590F0B5A1B003901D008B890F0016001B0611D50B69002B0ED1402100F0C9FA38603861002805D10C23039A0138136021B0F0BD40237B61002308AC63612033637644
S14345D01033A376079535002B78002B01D0252B47D1AB1B0593B5420CD0320039000398FFF76CFF431C00D1AEE06269059B9446634463612B78002B00D1A5E00122002303
S14346105242626004A9543252186E1C2360E360A3601370A36505223178544800F032FA751C00281FD12268D30604D5532304A95B1820211970130704D5532304A95B183F
S14346502B21197033782A2B16D0350000210A20E3682A786E1C303A092A4ED9002911D117E00135B0E7414B2268C01A0123834013432E002360CEE7079B191D1B6807915B
S1434690002B01DB0B9304E05B42E3600223134323602B782E2B0AD16B782A2B35D1079B02351A1D1B680792002B2BDB0993304E03223000297800F0E5F9002806D04023CE
S14346D0801B834022680135134323602978062228486E1C217600F0D5F900283CD0264B002B25D10722079B07339343083307936369049A9B18636165E743433500012117
S14347109B18A6E701235B42D0E700230A201A000135636029786E1C3039092903D9002BC5D00992C3E74243350001235218F1E707AB00933A002100104B039800E000BF51
S14347500490049B0133D3D1BB890D985B0600D42DE7012040422AE707AB00933A002100064B039800F07CF8EAE7C046F85E0000FE5E0000025F000000000000CD44000049
S1434790F7B5150001938A680B690C000090934200DA130022002B6043321278002A01D001332B6023689B0602D52B6802332B602268062317001F401A4227D023004333FB
S14347D01B785A1E93412268920630D4220001990098089E4332B047431C25D0062320682A68E16800250340042B03D18D1AEB43DB171D40A3682269934201DD9B1AED18C8
S14348100027BD4220D1002010E00137E3682A689B1ABB42D2DD2200012301990098089E1932B047431CF0D101204042FEBD3020E1184331087021005A1C45310978A2186C
S1434850433202331170C1E72200012301990098089E1A32B047431CE6D00137D1E70000F0B58BB006920A0043320793059004920A7E0C00109B782A07D8622A09D8002AD8
S143489000D1C1E0582A00D18CE026004236327022E0100063381528F7D8FFF76DFD16001F00F6FFF6FFF6FFF6FF1F00F6FFF6FFF6FFF6FFA80036009A00F6FFF6FFB90043
S14348D0F6FF3600F6FFF6FF9E0026001A684236111D1960136833700123A7E0086819680A1D05060BD50D681A60002D03DA2D23049A6D421370614B0A2703931BE00D6862
S14349101A604106F1D52DB2EFE70D681968081D18602E0601D50D6803E06D06FBD50D68ADB2564B082703936F2A00D002372300002243331A706368A360002B03DB0422D1
S1434950216891432160002D02D1049E002B0CD0049E28003900FEF7FFFB039B013E5B5C33702B0005009F42F3D9082F09D12368DB0706D563682269934202DC3023013EA2
S14349903370049B9B1B2361079B210000930598069B09AAFFF7F4FE431C4CD1012040420BB0F0BD45310A70344A03921A68216820CA1A60080616D5CB0702D520231943FE
S14349D021601027002DB2D1202322689A432260ADE7202209680A4322602200782145321170274AE1E74806E6D5ADB2E4E71A680D68101D4969186013682E0601D519608E
S1434A1002E06D06FBD519800023049E2361BBE71A68111D1960166800213000626800F031F8002801D0801B6060636823610023049A1370A8E72369320006990598079DCA
S1434A50A847431CAAD023689B0715D4099BE0689842A5DA1800A3E72200012306990598079E1932B047431C98D00135E368099A9B1AAB42F0DCE9E70025F7E7095F000060
S1434A901A5F0000C9B28218904201D10020704703788B42FBD00130F6E7000070B50500002910D00C1F2368002B00DAE418280000F0DEF81D4A1368002B05D163601460C6
S1434AD0280000F0D6F870BDA34208D9216860188342F3D118685B6841182160EEE71A005B68002B01D0A342F9D911685018A0420BD120680918501811608342E0D11868A6
S1434B105B68411811605360DAE7A04202D90C232B60D5E721686018834203D118685B684118216063605460CAE7C04674FEFF1FF8B50323CD1C9D43083506000C2D1FD2AF
S1434B500C25A9421ED8300000F092F825490A681400002C1AD1244F3B68002B04D12100300000F073F838602900300000F06EF8431C2BD10C233000336000F07AF803E0BF
S1434B90002DDEDA0C2333600020F8BD23685B1B19D40B2B03D92360E418256003E06368A2420ED10B60300000F063F8200007220B30231D9043C21A9842E6D01B1AA350DF
S1434BD0E3E75360EFE722006468C2E70323C41C9C43A042E1D0211A300000F037F8431CDBD1C7E774FEFF1F78FEFF1FF7B507000E001400002905D11100FFF799FF050060
S1434C102800FEBD002A03D1FFF748FF2500F7E700F030F80190844203D835004308A342EED321003800FFF783FF051EE8D0019B22009C4200D91A0031002800FFF7A6FBA4
S1434C5031003800FFF72AFFDAE70000002370B5064D040008002B60FEF7EAF9431C03D12B68002B00D0236070BDC0467CFEFF1F704770470B1F1B68181F002B01DA0B5803
S1434C90C018704704FCFF1FDA08000020090000140900000E0900000E09000030090000C4090000C4090000C4090000C4090000C4090000C4090000C4090000C40900003C
S1434CD0C4090000C4090000C4090000C4090000C4090000C4090000C4090000C4090000C4090000C409000040090000540900000E0900000E0900000E0900000E0900009C
S1434D100E0900000E0900000E090000680900007C090000900900000E0900000E0900000E0900000E090000A4090000AC090000B4090000BC090000557365205441422007
S1434D506B657920666F7220636F6D706C6574696F6E0A0D436F6D6D616E643A0A0D000009636C6561722020202020202020202020202020202D20636C6561722073637242
S1434D9065656E0A0D0000000969326320202020202020202020202020202020202D204932432064726976657220636F6D6D616E64730A0D000000005E4320646574656363
S1434DD07465642C2073746F7070696E67207461736B0A0D0000000054657374696E672050574D200D0A000050574D20636F6E666967206661696C65640D0A004144432081
S1434E10696E6974206661696C65640D0A00000041444320696E697420636F6D706C657465640D0A0000000054657374696E672057533238313142204C454473200D0A0029
S1434E50EC1A0000C21A0000D41A0000E61A0000EC1A0000EC1A0000E81C00004C1D00004C1D0000281D0000001D0000301D00004C1D00004C1D00004C1D00004C1D000019
S1434E904C1D00004C1D0000F61C00003C1E00004A1E00005A1E00000C1F00000C1F0000721E0000981E000054657374696E672053504920446973706C61790D0A0000002D
S1434ED0446973706C617900546573740000000049324320627573207363616E20726573756C74733A200D0A00000000466F756E64206465766963653A20000025303278B3
S1434F100D0A00000D0A2041444320526561643A2000000025640D0A000000000D0A205374617274696E6720646973706C6179206C6F6F702C207072657373204374726C10
S1434F502D4320746F2073746F70200D0A0000004144432056616C75653A0000256400006932630073706900646973706C61795F74657374000000006C6564006164630029
S1434F9054657374696E67204D4D41383435315120616363656C65726F6D657465720D0A000000004D4D41383435315120696E6974206661696C65640D0A00004D4D4138CE
S1434FD034353120696E697420636F6D706C657465640D0A000000004D4D4138343531512072656164206661696C65640D0A00000D0A583A200000000D0A593A2000000052
S14350100D0A5A3A2000000068656C70000000004B4C30352D446576626F617264207368656C6C2C207573696E67206D6963726F726C207600000000312E352E310000004D
S1435050636C6561720000001B5B324A000000001B5B480070776D74657374006D6D615F74657374000000006D6D615F726561645F616C6C000000006275737363616E003A
S143509049324320737562636F6D6D616E64206E6F7420666F756E640A0D0000546F6F206C6974746C6520617267756D656E74730A0D000053504920737562636F6D6D61C1
S14350D06E64206E6F7420666F756E640A0D0000696E69740000000072656164000000006B65797061645F74657374006B6579626F6172645F746573740000007374796CDD
S14351106F70686F6E655F64656D6F0041444320737562636F6D6D616E64206E6F7420666F756E640A0D00004C454420737562636F6D6D616E64206E6F7420666F756E642E
S14351500A0D0000636F6D6D616E643A2027000027204E6F7420666F756E642E0A0D00001B5B33326D44656D6F203E1B5B306D20000000004552524F523A746F6F206D6149
S14351906E7920746F6B656E730000001B5B2564430000001B5B2564440000001B5B2564441B5B25644300001B5B4B001B5B44201B5B4400082F0000742E00009C2E00003E
S14351D0FA2E0000082F0000602E0000802E0000082F0000C62E00002A2E0000202E00004E2E0000082F0000242E0000BE2E0000082F0000B62E0000082F0000D82E0000E6
S1435210082F0000082F00003C2E0000082F0000082F0000082F0000082F0000082F0000302E0000082F0000082F0000082F0000082F0000082F0000082F0000082F000090
S1435250082F0000082F0000082F0000082F0000082F0000082F0000082F0000082F0000082F0000082F0000082F0000082F0000082F0000082F0000082F0000082F0000AA
S1435290082F0000082F0000082F0000082F0000082F0000082F0000082F0000082F0000082F0000082F0000082F0000082F0000082F0000082F0000082F0000082F00006A
S14352D0082F0000082F0000082F0000082F0000082F0000082F0000082F0000082F0000082F0000082F0000082F0000082F0000082F0000082F0000082F0000082F00002A
S1435310082F0000082F0000082F0000082F0000082F0000082F0000082F0000082F0000082F0000082F0000082F0000082F0000082F0000082F0000082F0000082F0000E9
S1435350082F0000082F0000082F0000082F0000082F0000082F0000082F0000082F0000082F0000082F0000082F0000082F0000082F0000082F0000082F0000082F0000A9
S1435390082F0000082F0000082F0000082F0000082F0000082F0000082F0000082F0000082F0000082F0000082F0000082F0000C62E000000A0044040F00F4009000000E5
S14353D000A0044040F00F400D0000000090044000F00F400900000000A0044040F00F400B000000010000000000000000A0044040F00F4005000000FF000000FF00000038
S1435410FF00000000000000000000000090044000F00F40080000001400160018001A001C001E00220028001C002000240028002C0030003800440030003800400048000E
S1435450500058006800800050006000700080009000A000C000F000A000C000E0000001200140018001E00140018001C0010002400280020003C0038002000380030004E8
S1435490800400050006800700050006000700080009000A000C000F0090044000F00F400C0000000000000000A0044040F00F4005000000010000000090044000F00F40DF
S14354D009000000020000000090044000F00F40080000000300000000A0044040F00F40020000000400000000A0044040F00F40010000000500000000A0044040F00F403A
S143551000000000060000000090044000F00F40070000000700000000A0044040F00F400B0000000800000000A0044040F00F400A0000000900000000A0044040F00F40E1
S1435550090000000A00000000A0044040F00F40080000000B0000000090044000F00F40000000000C00000000A0044040F00F400D0000000D000000E0500000E85000008A
S1435590F0500000FC5000000C5100006C50000078500000885000001850000050500000704F0000744F0000884F0000645000008C4F00000000003FCDCC4C3D0AD7A33B82
S14355D06F12033A17B75138ACC5A736BD37063595BF563377CCAB315F700930FFE65B2E00A0044040F00F400000000000A0044040F00F40090000000090044000F00F40B1
S14356100B0000000090044000F00F40070000000090044000F00F400C00000000A0044040F00F400B000000008003400000000000A0044040F00F400A00000000800340B1
S14356500100000000A0044040F00F4009000000008003400200000000A0044040F00F400800000000800340030000000090044000F00F40060000000080034004000000D3
S14356900090044000F00F400500000000800340050000000090044000F00F400C000000009003400000000000A0044040F00F4005000000009003400100000000900440F4
S14356D000F00F4000000000009003400000000000A0044040F00F400D00000000900340010000001815211506151315C015201508152419FF000000181520150C19FF00B1
S14357101815201508152419FF00000020FF010100000000000000000000005F5F0000000007070007070000147F7F1C7F7F140000242A7F7F2A1200466630180C6662000F
S1435750307A4F5D377A4800000000070700000000001C3E63410000000041633E1C0000082A3E1C1C3E2A080008083E3E080800000080E060000000000808080808080018
S143579000000060600000006030180C060301003E7F5149457F3E000040427F7F40400000727B49496F660000226149497F36001814527F7F50100000276F494979330030
S14357D0003E7F49497B3200000301717D0F070000367F49497F360000266F49497F3E000000006C6C000000000080EC6C00000000081C366341000000242424242424002B
S1435810004163361C08000000020351590F06003E7F415D5D5F1E00007C7E13137E7C00417F7F49497F36001C3E634141632200417F7F41633E1C00417F7F495D41630033
S1435850417F7F491D0103003C7E434151737200007F7F08087F7F000041417F7F414100307040417F3F0100417F7F081C776300417F7F41406070007F7F0E1C0E7F7F0008
S14358907F7F060C187F7F001C3E6341633E1C00417F7F49090706003C7E4351336E5C00417F7F09193F660000266F49497B32000003417F7F410300003F7F40407F3F00AE
S14358D0001F3F60603F1F007F7F3018307F7F0061731E0C1E73610000074F78784F0700476371594D67730000007F7F414100000103060C18306000000041417F7F0000BF
S1435910080C0603060C08008080808080808080000002060C080000207454543C784000433F7F44447C380000387C44446C2800387C44453F7F400000387C54545C1800B8
S143595000487E7F490302000098BCA4A4FC7C00417F7F08047C78000000447D7D4000000060E08084FC7D00417F7F10386C44000000417F7F400000787C0C380C7C780004
S1435990047C78040478780000387C44447C380084FCF8A4243C1800183C24A4F8FC8400447C78440C08000000485C545474200000043F7F44642000003C7C40407C7C00A1
S14359D0001C3C60603C1C003C7C6038607C3C00446C3810386C4400009CBCA0A0FC7C00004C64745C4C4400004141773E0808000000007F7F0000000008083E774141002F
S1435A1002030103020101000000000000000000000000FFFF00000018181818181818180000001F1F181818000000F8F8181818181818F8F80000001818181F1F0000000B
S1435A501818181F1F181818000000FFFF181818181818F8F8181818181818FFFF000000181818FFFF18181800081C3E0808080000080C3E0C080000000808083E1C080050
S1435A900008183E1808000000000000F0F0F0F0F0F0F0F000000000F0F0F0F0F0F0F0F0000000000F0F0F0F00000000FFFFFFFFF0F0F0F00F0F0F0FF0F0F0F0FFFFFFFF64
S1435AD00F0F0F0F000000000F0F0F0FF0F0F0F0FFFFFFFF00000000FFFFFFFFF0F0F0F00F0F0F0F0F0F0F0F0F0F0F0FFFFFFFFFFFFFFFFF0F0F0F0FFFFFFFFFFFFFFFFFC2
S1435B10C0C0C0C0C0C0C0C0FCFCFCFCFCFCFCFC00000000000000000000007D7D000000387C44FE446C2800487E7F4949636200005A3C24243C5A000015577E7E571500C5
S1435B50000000777700000040487E771D09010000030300000303001C225D5555221C00485D554F5E500000081C362A1C3622000008080808081800000010101000000091
S1435B901C225D4D55221C000000010101010000000E1B111B0E00000048487E7E48480000191D1517120000001115151F0A0000000004070300000000F8F84040783800CD
S1435BD0020F7F7F017F0100000000181800000000004040600000000000111F1F100000004E5B515B4E000022361C2A361C0800021F0030287C2000021F00486454480079
S1435C101115150A30287C200030784D4570300000787D15147C780000787C14157D780000787C15157C780000787D15157D780000797D14147D790000787E15157E7800C9
S1435C50787C127F7F496B000C9EB3E1E1331200447D7D5454544400447C7C5555544400447C7D5555554400447D7D54555544000044457D7C4444000044447C7D454400E4
S1435C900044457D7D4544000045457C7C454500497F7F49633E1C00007A7911227A7900387C4545447C3800387C4444457D3800387C4545457C3800387D4545457D380076
S1435CD0387D4544457D380042663C183C6642005C3E735D673E1D01003C7D41407C3C00003C7C40417D3C00003C7D41417D3C00003D7D40407D3D00000C5D71705C0C00CD
S1435D107F7F2222221C00007E7F4949493E3600207555543C784000207454553D784000207455553D784000207555553D794000207555543D794000207655553E7840004D
S1435D502074547C3454580000183CA4E424280000387D55545C180000387C54555D180000387D55555D180000397D54545D19000000497B7A4000000000487A7B4100005B
S1435D9000004A797942000000024A78784202000035754B4E7D3100087A71090A7A71000030794B4A7830000030784A4B79300000307A49497A3000003279494A7A310054
S1435DD000327A48487A32000008086B6B08080080B07868587834040038794342787800003878424379780000387A41417A7800003A7A40407A7A000098B8A2A3F97800F9
S1435E10007E242424180000009ABAA0A0FA7A000001050502020C4B00093D0000041E280B06000054003000243B0000B43A00000A3A0000C23900000A3A0000F23A0000BD
S1435E500A3A0000C2390000B43A0000B43A0000F23A0000C2390000C8390000C8390000C8390000FE3A0000B43A0000B43A00000A3A0000C03900000A3A0000F23A000008
S1435E900A3A0000C0390000B43A0000B43A0000F23A0000C0390000C8390000C8390000C8390000FC3A0000883D0000583D0000583D0000563D00005C3D00005C3D0000A3
S1435ED0A43E0000563D00005C3D0000A43E00005C3D0000563D0000503E0000503E0000503E0000E03E0000232D302B2000686C4C00656667454647003031323334353656
S13F5F1037383941424344454600303132333435363738396162636465660000F8B5C046F8BC08BC9E46704785040000F8B5C046F8BC08BC9E4670475904000040
S10B5F4C5CA5FF7F01000000C9
S10F5F54605F000000FCFF1F190000004B
S1435F6004FCFF1F000000000000000000000000000000000000000000000000000000000000000000000000000000000000000000000000000000000000000000000000DF
S1275FA0000000000000000000000000000000000000000000000000000000000000000000000000D9
S9032F7954
